{
  "_format": "hh-sol-artifact-1",
  "contractName": "ClawPool",
  "sourceName": "contracts/ClawPool.sol",
  "abi": [
    {
      "inputs": [
        {
          "internalType": "address",
          "name": "_agent",
          "type": "address"
        },
        {
          "internalType": "address",
          "name": "_usdc",
          "type": "address"
        }
      ],
      "stateMutability": "nonpayable",
      "type": "constructor"
    },
    {
      "inputs": [
        {
          "internalType": "address",
          "name": "owner",
          "type": "address"
        }
      ],
      "name": "OwnableInvalidOwner",
      "type": "error"
    },
    {
      "inputs": [
        {
          "internalType": "address",
          "name": "account",
          "type": "address"
        }
      ],
      "name": "OwnableUnauthorizedAccount",
      "type": "error"
    },
    {
      "inputs": [
        {
          "internalType": "address",
          "name": "token",
          "type": "address"
        }
      ],
      "name": "SafeERC20FailedOperation",
      "type": "error"
    },
    {
      "anonymous": false,
      "inputs": [
        {
          "indexed": true,
          "internalType": "address",
          "name": "router",
          "type": "address"
        },
        {
          "indexed": false,
          "internalType": "bytes",
          "name": "data",
          "type": "bytes"
        }
      ],
      "name": "AgentSwapExecuted",
      "type": "event"
    },
    {
      "anonymous": false,
      "inputs": [
        {
          "indexed": true,
          "internalType": "address",
          "name": "oldAgent",
          "type": "address"
        },
        {
          "indexed": true,
          "internalType": "address",
          "name": "newAgent",
          "type": "address"
        }
      ],
      "name": "AgentUpdated",
      "type": "event"
    },
    {
      "anonymous": false,
      "inputs": [
        {
          "indexed": true,
          "internalType": "address",
          "name": "user",
          "type": "address"
        },
        {
          "indexed": true,
          "internalType": "address",
          "name": "token",
          "type": "address"
        },
        {
          "indexed": false,
          "internalType": "uint256",
          "name": "amount",
          "type": "uint256"
        }
      ],
      "name": "Deposited",
      "type": "event"
    },
    {
      "anonymous": false,
      "inputs": [
        {
          "indexed": true,
          "internalType": "address",
          "name": "previousOwner",
          "type": "address"
        },
        {
          "indexed": true,
          "internalType": "address",
          "name": "newOwner",
          "type": "address"
        }
      ],
      "name": "OwnershipTransferred",
      "type": "event"
    },
    {
      "anonymous": false,
      "inputs": [
        {
          "indexed": true,
          "internalType": "address",
          "name": "user",
          "type": "address"
        },
        {
          "indexed": true,
          "internalType": "address",
          "name": "token",
          "type": "address"
        },
        {
          "indexed": false,
          "internalType": "uint256",
          "name": "amount",
          "type": "uint256"
        }
      ],
      "name": "Withdrawn",
      "type": "event"
    },
    {
      "inputs": [],
      "name": "agent",
      "outputs": [
        {
          "internalType": "address",
          "name": "",
          "type": "address"
        }
      ],
      "stateMutability": "view",
      "type": "function"
    },
    {
      "inputs": [
        {
          "internalType": "address",
          "name": "target",
          "type": "address"
        },
        {
          "internalType": "bytes",
          "name": "data",
          "type": "bytes"
        }
      ],
      "name": "agentSwap",
      "outputs": [],
      "stateMutability": "nonpayable",
      "type": "function"
    },
    {
      "inputs": [
        {
          "internalType": "address",
          "name": "token",
          "type": "address"
        },
        {
          "internalType": "uint256",
          "name": "amount",
          "type": "uint256"
        }
      ],
      "name": "deposit",
      "outputs": [],
      "stateMutability": "nonpayable",
      "type": "function"
    },
    {
      "inputs": [],
      "name": "owner",
      "outputs": [
        {
          "internalType": "address",
          "name": "",
          "type": "address"
        }
      ],
      "stateMutability": "view",
      "type": "function"
    },
    {
      "inputs": [],
      "name": "renounceOwnership",
      "outputs": [],
      "stateMutability": "nonpayable",
      "type": "function"
    },
    {
      "inputs": [
        {
          "internalType": "address",
          "name": "_agent",
          "type": "address"
        }
      ],
      "name": "setAgent",
      "outputs": [],
      "stateMutability": "nonpayable",
      "type": "function"
    },
    {
      "inputs": [
        {
          "internalType": "address",
          "name": "newOwner",
          "type": "address"
        }
      ],
      "name": "transferOwnership",
      "outputs": [],
      "stateMutability": "nonpayable",
      "type": "function"
    },
    {
      "inputs": [],
      "name": "usdc",
      "outputs": [
        {
          "internalType": "contract IERC20",
          "name": "",
          "type": "address"
        }
      ],
      "stateMutability": "view",
      "type": "function"
    },
    {
      "inputs": [
        {
          "internalType": "uint256",
          "name": "amount",
          "type": "uint256"
        }
      ],
      "name": "withdraw",
      "outputs": [],
      "stateMutability": "nonpayable",
      "type": "function"
    },
    {
      "inputs": [
        {
          "internalType": "address",
          "name": "token",
          "type": "address"
        },
        {
          "internalType": "uint256",
          "name": "amount",
          "type": "uint256"
        }
      ],
      "name": "withdrawToken",
      "outputs": [],
      "stateMutability": "nonpayable",
      "type": "function"
    }
  ],
  "bytecode": "0x60a06040523480156200001157600080fd5b50604051620017e2380380620017e283398181016040528101906200003791906200034e565b33600073ffffffffffffffffffffffffffffffffffffffff168173ffffffffffffffffffffffffffffffffffffffff1603620000ad5760006040517f1e4fbdf7000000000000000000000000000000000000000000000000000000008152600401620000a49190620003a6565b60405180910390fd5b620000be816200022060201b60201c565b50600073ffffffffffffffffffffffffffffffffffffffff168273ffffffffffffffffffffffffffffffffffffffff160362000131576040517f08c379a000000000000000000000000000000000000000000000000000000000815260040162000128906200044a565b60405180910390fd5b600073ffffffffffffffffffffffffffffffffffffffff168173ffffffffffffffffffffffffffffffffffffffff1603620001a3576040517f08c379a00000000000000000000000000000000000000000000000000000000081526004016200019a90620004e2565b60405180910390fd5b81600160006101000a81548173ffffffffffffffffffffffffffffffffffffffff021916908373ffffffffffffffffffffffffffffffffffffffff1602179055508073ffffffffffffffffffffffffffffffffffffffff1660808173ffffffffffffffffffffffffffffffffffffffff1681525050505062000504565b60008060009054906101000a900473ffffffffffffffffffffffffffffffffffffffff169050816000806101000a81548173ffffffffffffffffffffffffffffffffffffffff021916908373ffffffffffffffffffffffffffffffffffffffff1602179055508173ffffffffffffffffffffffffffffffffffffffff168173ffffffffffffffffffffffffffffffffffffffff167f8be0079c531659141344cd1fd0a4f28419497f9722a3daafe3b4186f6b6457e060405160405180910390a35050565b600080fd5b600073ffffffffffffffffffffffffffffffffffffffff82169050919050565b60006200031682620002e9565b9050919050565b620003288162000309565b81146200033457600080fd5b50565b60008151905062000348816200031d565b92915050565b60008060408385031215620003685762000367620002e4565b5b6000620003788582860162000337565b92505060206200038b8582860162000337565b9150509250929050565b620003a08162000309565b82525050565b6000602082019050620003bd600083018462000395565b92915050565b600082825260208201905092915050565b7f436c6177506f6f6c3a206167656e742063616e6e6f74206265207a65726f206160008201527f6464726573730000000000000000000000000000000000000000000000000000602082015250565b600062000432602683620003c3565b91506200043f82620003d4565b604082019050919050565b60006020820190508181036000830152620004658162000423565b9050919050565b7f436c6177506f6f6c3a20757364632063616e6e6f74206265207a65726f20616460008201527f6472657373000000000000000000000000000000000000000000000000000000602082015250565b6000620004ca602583620003c3565b9150620004d7826200046c565b604082019050919050565b60006020820190508181036000830152620004fd81620004bb565b9050919050565b6080516112b46200052e600039600081816102010152818161024701526102cf01526112b46000f3fe608060405234801561001057600080fd5b506004361061009e5760003560e01c80639e281a98116100665780639e281a9814610121578063bcf685ed1461013d578063bd773a7814610159578063f2fde38b14610175578063f5ff5c76146101915761009e565b80632e1a7d4d146100a35780633e413bee146100bf57806347e7ef24146100dd578063715018a6146100f95780638da5cb5b14610103575b600080fd5b6100bd60048036038101906100b89190610c03565b6101af565b005b6100c76102cd565b6040516100d49190610caf565b60405180910390f35b6100f760048036038101906100f29190610d08565b6102f1565b005b6101016103ca565b005b61010b6103de565b6040516101189190610d57565b60405180910390f35b61013b60048036038101906101369190610d08565b610407565b005b61015760048036038101906101529190610d72565b6104e6565b005b610173600480360381019061016e9190610e04565b61061d565b005b61018f600480360381019061018a9190610d72565b610821565b005b6101996108a7565b6040516101a69190610d57565b60405180910390f35b6101b76108cd565b600081116101fa576040517f08c379a00000000000000000000000000000000000000000000000000000000081526004016101f190610ee7565b60405180910390fd5b61024533827f000000000000000000000000000000000000000000000000000000000000000073ffffffffffffffffffffffffffffffffffffffff166109549092919063ffffffff16565b7f000000000000000000000000000000000000000000000000000000000000000073ffffffffffffffffffffffffffffffffffffffff163373ffffffffffffffffffffffffffffffffffffffff167fd1c19fbcd4551a5edfb66d43d2e337c04837afda3482b42bdf569a8fccdae5fb836040516102c29190610f16565b60405180910390a350565b7f000000000000000000000000000000000000000000000000000000000000000081565b60008111610334576040517f08c379a000000000000000000000000000000000000000000000000000000000815260040161032b90610ee7565b60405180910390fd5b6103613330838573ffffffffffffffffffffffffffffffffffffffff166109d3909392919063ffffffff16565b8173ffffffffffffffffffffffffffffffffffffffff163373ffffffffffffffffffffffffffffffffffffffff167f8752a472e571a816aea92eec8dae9baf628e840f4929fbcc2d155e6233ff68a7836040516103be9190610f16565b60405180910390a35050565b6103d26108cd565b6103dc6000610a55565b565b60008060009054906101000a900473ffffffffffffffffffffffffffffffffffffffff16905090565b61040f6108cd565b60008111610452576040517f08c379a000000000000000000000000000000000000000000000000000000000815260040161044990610ee7565b60405180910390fd5b61047d33828473ffffffffffffffffffffffffffffffffffffffff166109549092919063ffffffff16565b8173ffffffffffffffffffffffffffffffffffffffff163373ffffffffffffffffffffffffffffffffffffffff167fd1c19fbcd4551a5edfb66d43d2e337c04837afda3482b42bdf569a8fccdae5fb836040516104da9190610f16565b60405180910390a35050565b6104ee6108cd565b600073ffffffffffffffffffffffffffffffffffffffff168173ffffffffffffffffffffffffffffffffffffffff160361055d576040517f08c379a000000000000000000000000000000000000000000000000000000000815260040161055490610fa3565b60405180910390fd5b8073ffffffffffffffffffffffffffffffffffffffff16600160009054906101000a900473ffffffffffffffffffffffffffffffffffffffff1673ffffffffffffffffffffffffffffffffffffffff167fee7760cb405d3beb1072ae2e716857daa45a5dd52bc1383a21173199d32c7dee60405160405180910390a380600160006101000a81548173ffffffffffffffffffffffffffffffffffffffff021916908373ffffffffffffffffffffffffffffffffffffffff16021790555050565b600160009054906101000a900473ffffffffffffffffffffffffffffffffffffffff1673ffffffffffffffffffffffffffffffffffffffff163373ffffffffffffffffffffffffffffffffffffffff16146106ad576040517f08c379a00000000000000000000000000000000000000000000000000000000081526004016106a490611035565b60405180910390fd5b600073ffffffffffffffffffffffffffffffffffffffff168373ffffffffffffffffffffffffffffffffffffffff160361071c576040517f08c379a0000000000000000000000000000000000000000000000000000000008152600401610713906110c7565b60405180910390fd5b60008373ffffffffffffffffffffffffffffffffffffffff168383604051610745929190611126565b6000604051808303816000865af19150503d8060008114610782576040519150601f19603f3d011682016040523d82523d6000602084013e610787565b606091505b50509050806107cb576040517f08c379a00000000000000000000000000000000000000000000000000000000081526004016107c29061118b565b60405180910390fd5b8373ffffffffffffffffffffffffffffffffffffffff167f489085340e41584efae6bcf6cf5bffec1f0e2ddffbeec5ed33f472211ce034bf84846040516108139291906111fa565b60405180910390a250505050565b6108296108cd565b600073ffffffffffffffffffffffffffffffffffffffff168173ffffffffffffffffffffffffffffffffffffffff160361089b5760006040517f1e4fbdf70000000000000000000000000000000000000000000000000000000081526004016108929190610d57565b60405180910390fd5b6108a481610a55565b50565b600160009054906101000a900473ffffffffffffffffffffffffffffffffffffffff1681565b6108d5610b19565b73ffffffffffffffffffffffffffffffffffffffff166108f36103de565b73ffffffffffffffffffffffffffffffffffffffff161461095257610916610b19565b6040517f118cdaa70000000000000000000000000000000000000000000000000000000081526004016109499190610d57565b60405180910390fd5b565b6109ce838473ffffffffffffffffffffffffffffffffffffffff1663a9059cbb858560405160240161098792919061121e565b604051602081830303815290604052915060e01b6020820180517bffffffffffffffffffffffffffffffffffffffffffffffffffffffff8381831617835250505050610b21565b505050565b610a4f848573ffffffffffffffffffffffffffffffffffffffff166323b872dd868686604051602401610a0893929190611247565b604051602081830303815290604052915060e01b6020820180517bffffffffffffffffffffffffffffffffffffffffffffffffffffffff8381831617835250505050610b21565b50505050565b60008060009054906101000a900473ffffffffffffffffffffffffffffffffffffffff169050816000806101000a81548173ffffffffffffffffffffffffffffffffffffffff021916908373ffffffffffffffffffffffffffffffffffffffff1602179055508173ffffffffffffffffffffffffffffffffffffffff168173ffffffffffffffffffffffffffffffffffffffff167f8be0079c531659141344cd1fd0a4f28419497f9722a3daafe3b4186f6b6457e060405160405180910390a35050565b600033905090565b600080602060008451602086016000885af180610b44576040513d6000823e3d81fd5b3d925060005191505060008214610b5f576001811415610b7b565b60008473ffffffffffffffffffffffffffffffffffffffff163b145b15610bbd57836040517f5274afe7000000000000000000000000000000000000000000000000000000008152600401610bb49190610d57565b60405180910390fd5b50505050565b600080fd5b600080fd5b6000819050919050565b610be081610bcd565b8114610beb57600080fd5b50565b600081359050610bfd81610bd7565b92915050565b600060208284031215610c1957610c18610bc3565b5b6000610c2784828501610bee565b91505092915050565b600073ffffffffffffffffffffffffffffffffffffffff82169050919050565b6000819050919050565b6000610c75610c70610c6b84610c30565b610c50565b610c30565b9050919050565b6000610c8782610c5a565b9050919050565b6000610c9982610c7c565b9050919050565b610ca981610c8e565b82525050565b6000602082019050610cc46000830184610ca0565b92915050565b6000610cd582610c30565b9050919050565b610ce581610cca565b8114610cf057600080fd5b50565b600081359050610d0281610cdc565b92915050565b60008060408385031215610d1f57610d1e610bc3565b5b6000610d2d85828601610cf3565b9250506020610d3e85828601610bee565b9150509250929050565b610d5181610cca565b82525050565b6000602082019050610d6c6000830184610d48565b92915050565b600060208284031215610d8857610d87610bc3565b5b6000610d9684828501610cf3565b91505092915050565b600080fd5b600080fd5b600080fd5b60008083601f840112610dc457610dc3610d9f565b5b8235905067ffffffffffffffff811115610de157610de0610da4565b5b602083019150836001820283011115610dfd57610dfc610da9565b5b9250929050565b600080600060408486031215610e1d57610e1c610bc3565b5b6000610e2b86828701610cf3565b935050602084013567ffffffffffffffff811115610e4c57610e4b610bc8565b5b610e5886828701610dae565b92509250509250925092565b600082825260208201905092915050565b7f436c6177506f6f6c3a20616d6f756e74206d757374206265206772656174657260008201527f207468616e203000000000000000000000000000000000000000000000000000602082015250565b6000610ed1602783610e64565b9150610edc82610e75565b604082019050919050565b60006020820190508181036000830152610f0081610ec4565b9050919050565b610f1081610bcd565b82525050565b6000602082019050610f2b6000830184610f07565b92915050565b7f436c6177506f6f6c3a206167656e742063616e6e6f74206265207a65726f206160008201527f6464726573730000000000000000000000000000000000000000000000000000602082015250565b6000610f8d602683610e64565b9150610f9882610f31565b604082019050919050565b60006020820190508181036000830152610fbc81610f80565b9050919050565b7f436c6177506f6f6c3a2063616c6c6572206973206e6f7420746865206167656e60008201527f7400000000000000000000000000000000000000000000000000000000000000602082015250565b600061101f602183610e64565b915061102a82610fc3565b604082019050919050565b6000602082019050818103600083015261104e81611012565b9050919050565b7f436c6177506f6f6c3a207461726765742063616e6e6f74206265207a65726f2060008201527f6164647265737300000000000000000000000000000000000000000000000000602082015250565b60006110b1602783610e64565b91506110bc82611055565b604082019050919050565b600060208201905081810360008301526110e0816110a4565b9050919050565b600081905092915050565b82818337600083830152505050565b600061110d83856110e7565b935061111a8385846110f2565b82840190509392505050565b6000611133828486611101565b91508190509392505050565b7f436c6177506f6f6c3a2073776170206661696c65640000000000000000000000600082015250565b6000611175601583610e64565b91506111808261113f565b602082019050919050565b600060208201905081810360008301526111a481611168565b9050919050565b600082825260208201905092915050565b6000601f19601f8301169050919050565b60006111d983856111ab565b93506111e68385846110f2565b6111ef836111bc565b840190509392505050565b600060208201905081810360008301526112158184866111cd565b90509392505050565b60006040820190506112336000830185610d48565b6112406020830184610f07565b9392505050565b600060608201905061125c6000830186610d48565b6112696020830185610d48565b6112766040830184610f07565b94935050505056fea26469706673582212201cfaf1493f3db365620ea2a3120379b91350b8b21a0eebe77ded7171db5851ed64736f6c63430008140033",
  "linkReferences": {},
  "deployedLinkReferences": {}
}